:100000000C9434000C943E000C943E000C943E0082
:100010000C943E000C943E000C943E000C943E0068
:100020000C943E000C943E000C943E000C943E0058
:100030000C943E000C943E000C943E000C943E0048
:100040000C943E000C943E000C943E000C943E0038
:100050000C943E000C943E000C943E000C943E0028
:100060000C943E000C943E0011241FBECFEFD8E04C
:10007000DEBFCDBF0E944B010C941C020C9400000B
:10008000E2ECF0E080818F7B808380818F778083BA
:1000900080818F7E808380818F7D80838081877F38
:1000A000808380818460808380818260808387E612
:1000B0008093C400E1ECF0E0808188608083089543
:1000C000219A249A239A209A529854980895853612
:1000D000910509F45AC070F58134910509F45BC0AB
:1000E00060F48032910509F448C08034910509F428
:1000F0004AC0009771F483E208958334910509F4AE
:1001000048C008F479C081369105A9F1833691057C
:10011000B1F18636910509F467C008F048C0803611
:10012000910509F45DC0D8F5009729F3819709F48A
:1001300059C008958238910551F148F480389105ED
:1001400001F1B8F48736910521F78FE408958538D9
:10015000910509F453C028F484389105D1F686E45A
:10016000089586389105C9F08E38910591F68AE494
:10017000089582E4089584E4089585E4089587E469
:10018000089588E4089589E408958BE408958CE443
:1001900008958DE408958EE4089580E508958236EB
:1001A0009105E1F08436910521F685E508958938B9
:1001B0009105E1F048F483389105D1F08838910534
:1001C00009F0B7CF86E508958B389105C9F090F016
:1001D0008D38910509F0ADCF89E5089582E5089540
:1001E00083E5089584E5089587E5089588E50895F1
:1001F0008AE5089580E2089581E4089583E40895EE
:1002000081E5089588EC90E0299AEFE8F1E03197D4
:10021000F1F700C000002998EFE8F1E03197F1F71D
:1002200000C00000019781F78CE291E0299AEFE18C
:10023000F3E03197F1F700C000002998EFE1F3E017
:100240003197F1F700C00000019781F784EF91E04A
:10025000299AEFE3F6E03197F1F700C00000299802
:10026000EFE3F6E03197F1F700C00000019781F766
:1002700088E592E0299AEFE5F9E03197F1F700C0BF
:1002800000002998EFE5F9E03197F1F700C0000090
:10029000019781F708950E9440000E9460000E942B
:1002A000020190E080E0C1E001E010E0DDE22EE23A
:1002B000F22E4A9B2EC02FEF33EC49E02150304004
:1002C0004040E1F700C000004A9B68C02091C00098
:1002D00025FFFCCF289A5FEFE1EEF4E05150E040BB
:1002E000F040E1F700C0000028982FEF31EE44E025
:1002F000215030404040E1F700C00000289A5FEFF5
:10030000E1EEF4E05150E040F040E1F700C00000C1
:1003100028984C9B39C0CC23B9F1FFEF23EC39E08E
:10032000F15020403040E1F700C000004C9958C027
:10033000282F229526952770A80102C0440F551F2B
:100340002A95E2F79A01209530958223932380968F
:100350002091C00025FFFCCFF092C6002C9A28EC1B
:1003600030E0299AEFE5F9E03197F1F700C000009D
:100370002998EFE3F6E03197F1F700C00000215033
:10038000310979F72C98C0E04C9993CFEFE3FCE961
:100390003197F1F700C00000C1E08BCF4A99B9CF87
:1003A000289A20E931E0299AE7EEF3E03197F1F756
:1003B00000C000002998E7EEF3E03197F1F700C0A4
:1003C00000002150310979F728980E946700909128
:1003D000C00095FFFCCF8093C60090E080E099CFED
:1003E0004C9BD1CF282F229526952770A80102C0BB
:1003F000440F551F2A95E2F79A01842B932B809680
:100400002091C00025FFFCCFD093C6002B9A20E995
:1004100031E0299AEFE5F9E03197F1F700C00000EB
:100420002998EFE3F6E03197F1F700C00000215082
:0C043000310979F72B98A7CFF894FFCF83
:00000001FF
