:100000000C9434000C943E000C943E000C943E0082
:100010000C943E000C943E000C943E000C943E0068
:100020000C943E000C943E000C943E000C943E0058
:100030000C943E000C943E000C943E000C943E0048
:100040000C943E000C943E000C943E000C943E0038
:100050000C943E000C943E000C943E000C943E0028
:100060000C943E000C943E0011241FBECFEFD8E04C
:10007000DEBFCDBF0E945E000C949A000C9400007D
:10008000299A8FE596E10197F1F700C000002998C1
:100090008FE596E10197F1F700C000000895299AD5
:1000A0008FE29BE00197F1F700C0000029988FE2F2
:1000B0009BE00197F1F700C000000895219A249A6F
:1000C000239A5498529884E690E0299AEFE3F6E058
:1000D0003197F1F700C000002998EFE1F3E0319784
:1000E000F1F700C00000019781F784E690E0299ABB
:1000F000EFEBF2E13197F1F700C000002998EFEA49
:10010000F4E03197F1F700C00000019781F784E631
:1001100090E0299AEFE3F6E03197F1F700C0000094
:100120002998EFE7FCE03197F1F700C00000019754
:0801300081F7C9CFF894FFCF5D
:00000001FF
